:0300000002008A71
:0C008A00787FE4F6D8FD75810A0200962C
:07009600E4FF12007880FE78
:10005800D3EF9400EE6480948040147D6E7C00EDB4
:0F0068001D70011CED4C70F7EF1F70E41E80E15E
:010077002266
:10000300E4F508C2A5C2A6D2A7F509F50AE508F4E6
:10001300F5807FE87E031200580508050AE50A709B
:10002300020509C3E5096480948140E1C2A5C2A623
:02003300C2A762
:0100350022A8
:10003600C2A5C2A6D2A7EF70057580FF8011EF1486
:10004600FF7480A807088002C313D8FCF4F580C2A9
:02005600A722DF
:10007800D2A5C2A6D2A7EF24FF9286C2A5C2A6C265
:02008800A722AD
:00000001FF
